{
  "contractName": "MotaCoin",
  "abi": [
    {
      "constant": true,
      "inputs": [],
      "name": "name",
      "outputs": [
        {
          "name": "",
          "type": "string"
        }
      ],
      "payable": false,
      "stateMutability": "view",
      "type": "function"
    },
    {
      "constant": true,
      "inputs": [],
      "name": "minter",
      "outputs": [
        {
          "name": "",
          "type": "address"
        }
      ],
      "payable": false,
      "stateMutability": "view",
      "type": "function"
    },
    {
      "constant": true,
      "inputs": [],
      "name": "decimals",
      "outputs": [
        {
          "name": "",
          "type": "uint8"
        }
      ],
      "payable": false,
      "stateMutability": "view",
      "type": "function"
    },
    {
      "constant": true,
      "inputs": [],
      "name": "symbol",
      "outputs": [
        {
          "name": "",
          "type": "string"
        }
      ],
      "payable": false,
      "stateMutability": "view",
      "type": "function"
    },
    {
      "inputs": [],
      "payable": false,
      "stateMutability": "nonpayable",
      "type": "constructor"
    },
    {
      "payable": true,
      "stateMutability": "payable",
      "type": "fallback"
    },
    {
      "anonymous": false,
      "inputs": [
        {
          "indexed": true,
          "name": "_from",
          "type": "address"
        },
        {
          "indexed": true,
          "name": "_to",
          "type": "address"
        },
        {
          "indexed": false,
          "name": "_value",
          "type": "uint256"
        }
      ],
      "name": "Transfer",
      "type": "event"
    },
    {
      "constant": true,
      "inputs": [
        {
          "name": "_owner",
          "type": "address"
        }
      ],
      "name": "balanceOf",
      "outputs": [
        {
          "name": "balance",
          "type": "uint256"
        }
      ],
      "payable": false,
      "stateMutability": "view",
      "type": "function"
    },
    {
      "constant": false,
      "inputs": [
        {
          "name": "_to",
          "type": "address"
        },
        {
          "name": "_value",
          "type": "uint256"
        }
      ],
      "name": "transfer",
      "outputs": [
        {
          "name": "success",
          "type": "bool"
        }
      ],
      "payable": false,
      "stateMutability": "nonpayable",
      "type": "function"
    },
    {
      "constant": false,
      "inputs": [
        {
          "name": "_from",
          "type": "address"
        },
        {
          "name": "_to",
          "type": "address"
        },
        {
          "name": "_value",
          "type": "uint256"
        }
      ],
      "name": "transferFrom",
      "outputs": [
        {
          "name": "success",
          "type": "bool"
        }
      ],
      "payable": false,
      "stateMutability": "nonpayable",
      "type": "function"
    },
    {
      "constant": false,
      "inputs": [
        {
          "name": "answerToCurrentReward",
          "type": "uint256"
        },
        {
          "name": "nextChallenge",
          "type": "uint256"
        }
      ],
      "name": "rewardMathGeniuses",
      "outputs": [],
      "payable": false,
      "stateMutability": "nonpayable",
      "type": "function"
    }
  ],
  "bytecode": "0x60606040526001600355341561001457600080fd5b6040805190810160405280600381526020017f4d544300000000000000000000000000000000000000000000000000000000008152506000908051906020019061005f92919061010e565b506040805190810160405280600881526020017f4d6f7461436f696e000000000000000000000000000000000000000000000000815250600190805190602001906100ab92919061010e565b50600a600260006101000a81548160ff021916908360ff16021790555033600460006101000a81548173ffffffffffffffffffffffffffffffffffffffff021916908373ffffffffffffffffffffffffffffffffffffffff1602179055506101b3565b828054600181600116156101000203166002900490600052602060002090601f016020900481019282601f1061014f57805160ff191683800117855561017d565b8280016001018555821561017d579182015b8281111561017c578251825591602001919060010190610161565b5b50905061018a919061018e565b5090565b6101b091905b808211156101ac576000816000905550600101610194565b5090565b90565b610943806101c26000396000f30060606040526004361061008e576000357c0100000000000000000000000000000000000000000000000000000000900463ffffffff16806306fdde0314610093578063075461721461012157806323b872dd14610176578063313ce567146101ef57806370a082311461021e57806395d89b411461026b578063a9059cbb146102f9578063e5f952d714610353575b600080fd5b341561009e57600080fd5b6100a661037f565b6040518080602001828103825283818151815260200191508051906020019080838360005b838110156100e65780820151818401526020810190506100cb565b50505050905090810190601f1680156101135780820380516001836020036101000a031916815260200191505b509250505060405180910390f35b341561012c57600080fd5b61013461041d565b604051808273ffffffffffffffffffffffffffffffffffffffff1673ffffffffffffffffffffffffffffffffffffffff16815260200191505060405180910390f35b341561018157600080fd5b6101d5600480803573ffffffffffffffffffffffffffffffffffffffff1690602001909190803573ffffffffffffffffffffffffffffffffffffffff16906020019091908035906020019091905050610443565b604051808215151515815260200191505060405180910390f35b34156101fa57600080fd5b6102026105df565b604051808260ff1660ff16815260200191505060405180910390f35b341561022957600080fd5b610255600480803573ffffffffffffffffffffffffffffffffffffffff169060200190919050506105f2565b6040518082815260200191505060405180910390f35b341561027657600080fd5b61027e61063b565b6040518080602001828103825283818151815260200191508051906020019080838360005b838110156102be5780820151818401526020810190506102a3565b50505050905090810190601f1680156102eb5780820380516001836020036101000a031916815260200191505b509250505060405180910390f35b341561030457600080fd5b610339600480803573ffffffffffffffffffffffffffffffffffffffff169060200190919080359060200190919050506106d9565b604051808215151515815260200191505060405180910390f35b341561035e57600080fd5b61037d6004808035906020019091908035906020019091905050610874565b005b60018054600181600116156101000203166002900480601f0160208091040260200160405190810160405280929190818152602001828054600181600116156101000203166002900480156104155780601f106103ea57610100808354040283529160200191610415565b820191906000526020600020905b8154815290600101906020018083116103f857829003601f168201915b505050505081565b600460009054906101000a900473ffffffffffffffffffffffffffffffffffffffff1681565b600061049782600560008773ffffffffffffffffffffffffffffffffffffffff1673ffffffffffffffffffffffffffffffffffffffff168152602001908152602001600020546108e090919063ffffffff16565b600560008673ffffffffffffffffffffffffffffffffffffffff1673ffffffffffffffffffffffffffffffffffffffff1681526020019081526020016000208190555061052c82600560008673ffffffffffffffffffffffffffffffffffffffff1673ffffffffffffffffffffffffffffffffffffffff168152602001908152602001600020546108f990919063ffffffff16565b600560008573ffffffffffffffffffffffffffffffffffffffff1673ffffffffffffffffffffffffffffffffffffffff168152602001908152602001600020819055508273ffffffffffffffffffffffffffffffffffffffff168473ffffffffffffffffffffffffffffffffffffffff167fddf252ad1be2c89b69c2b068fc378daa952ba7f163c4a11628f55a4df523b3ef846040518082815260200191505060405180910390a3600190509392505050565b600260009054906101000a900460ff1681565b6000600560008373ffffffffffffffffffffffffffffffffffffffff1673ffffffffffffffffffffffffffffffffffffffff168152602001908152602001600020549050919050565b60008054600181600116156101000203166002900480601f0160208091040260200160405190810160405280929190818152602001828054600181600116156101000203166002900480156106d15780601f106106a6576101008083540402835291602001916106d1565b820191906000526020600020905b8154815290600101906020018083116106b457829003601f168201915b505050505081565b600061072d82600560003373ffffffffffffffffffffffffffffffffffffffff1673ffffffffffffffffffffffffffffffffffffffff168152602001908152602001600020546108e090919063ffffffff16565b600560003373ffffffffffffffffffffffffffffffffffffffff1673ffffffffffffffffffffffffffffffffffffffff168152602001908152602001600020819055506107c282600560008673ffffffffffffffffffffffffffffffffffffffff1673ffffffffffffffffffffffffffffffffffffffff168152602001908152602001600020546108f990919063ffffffff16565b600560008573ffffffffffffffffffffffffffffffffffffffff1673ffffffffffffffffffffffffffffffffffffffff168152602001908152602001600020819055508273ffffffffffffffffffffffffffffffffffffffff163373ffffffffffffffffffffffffffffffffffffffff167fddf252ad1be2c89b69c2b068fc378daa952ba7f163c4a11628f55a4df523b3ef846040518082815260200191505060405180910390a36001905092915050565b6003546003830a14151561088757600080fd5b6001600560003373ffffffffffffffffffffffffffffffffffffffff1673ffffffffffffffffffffffffffffffffffffffff16815260200190815260200160002060008282540192505081905550806003819055505050565b60008282111515156108ee57fe5b818303905092915050565b600080828401905083811015151561090d57fe5b80915050929150505600a165627a7a723058206392aa70469320637df8823a424043a69968fb1629a1e61b7080cf271f1b8c950029",
  "source": "pragma solidity ^0.4.4;\n\nimport 'zeppelin-solidity/contracts/math/SafeMath.sol';\n\ncontract MotaCoin {\n\n  using SafeMath for uint;\n\n  event Transfer(\n      address indexed _from,\n      address indexed _to,\n      uint256 _value\n  );\n\n  string public symbol;\n  string public name;\n  uint8 public decimals;\n  uint currentChallenge = 1;\n  address public minter;\n  mapping(address => uint) balances;\n  /**\n   * Constructs the Token contract and gives all of the supply to the address\n   *     that deployed it. The fixed supply is 9 billion tokens with up to 18\n   *     decimal places.\n   */\n  function MotaCoin() public {\n      symbol = 'MTC';\n      name = 'MotaCoin';\n      decimals = 10;\n      minter = msg.sender;\n      /*totalSupply = 9000000000 * 10**uint(decimals);\n      balances[msg.sender] = totalSupply;\n      Transfer(address(0), msg.sender, totalSupply);*/\n  }\n\n  /**\n   * @dev Fallback function\n   */\n  function() public payable { revert(); }\n\n  /**\n   * Gets the token balance of any wallet.\n   * @param _owner Wallet address of the returned token balance.\n   * @return The balance of tokens in the wallet.\n   */\n  function balanceOf(address _owner)\n      public\n      constant\n      returns (uint balance)\n  {\n      return balances[_owner];\n  }\n\n  /**\n   * Transfers tokens from the sender's wallet to the specified `_to` wallet.\n   * @param _to Address of the transfer's recipient.\n   * @param _value Number of tokens to transfer.\n   * @return True if the transfer succeeded, false if not.\n   */\n  function transfer(address _to, uint _value) public returns (bool success) {\n      balances[msg.sender] = balances[msg.sender].sub(_value);\n      balances[_to] = balances[_to].add(_value);\n      Transfer(msg.sender, _to, _value);\n      return true;\n  }\n\n  /**\n   * Transfer tokens from any wallet to the `_to` wallet. This only works if\n   *     the `_from` wallet has already allocated tokens for the caller keyset\n   *     using `approve`. From wallet must have sufficient balance to\n   *     transfer. Caller must have sufficient allowance to transfer.\n   * @param _from Wallet address that tokens are withdrawn from.\n   * @param _to Wallet address that tokens are deposited to.\n   * @param _value Number of tokens transacted.\n   * @return True if the transfer succeeded, false if not.\n   */\n  function transferFrom(address _from, address _to, uint _value)\n      public\n      returns (bool success)\n  {\n      balances[_from] = balances[_from].sub(_value);\n\n      balances[_to] = balances[_to].add(_value);\n      Transfer(_from, _to, _value);\n      return true;\n  }\n\n\n  function rewardMathGeniuses(uint answerToCurrentReward, uint nextChallenge) public {\n      require(answerToCurrentReward**3 == currentChallenge); // If answer is wrong do not continue\n      balances[msg.sender] += 1; // Reward the player\n      currentChallenge = nextChallenge; // Set the next challenge\n  }\n\n}\n",
  "sourcePath": "D:\\motacoin\\contracts\\MotaCoin.sol",
  "compiler": {
    "name": "solc",
    "version": "0.4.19+commit.c4cbbb05.Emscripten.clang"
  },
  "schemaVersion": "1.0.1",
  "updatedAt": "2018-02-23T02:31:38.338Z"
}